:100000000EC015C014C013C012C011C010C00FC064
:100010000EC00DC00CC00BC00AC009C008C011241E
:100020001FBECFE5D2E0DEBFCDBF33D065C0E8CF85
:10003000806287B986E886B9369A3699FECF85B14F
:100040000895EF92FF920F931F93CF93DF931F9228
:10005000CDB7DEB7E82EF12C00E010E0F61661F027
:100060008E2D6983E5DF080F111D8AE18A95F1F76E
:1000700000C0F3946981F2CF6F2D70E0C80128D0E1
:10008000862F0F90DF91CF911F910F91FF90EF90EE
:100090000895B99AC19886E087BD83EE80BF1CBCE5
:1000A0008FE98DBD1EBCC0E064E081E0CADFD82FBF
:1000B00083E0BEDF2D2F30E090E02817390724F4CD
:1000C000CB3820F4CF5F02C0C111C150CEBDECCF00
:1000D000AA1BBB1B51E107C0AA1FBB1FA617B7076E
:1000E00010F0A61BB70B881F991F5A95A9F780958A
:0C00F0009095BC01CD010895F894FFCF5D
:00000001FF
